{
  "contractName": "RockPaperScissors",
  "abi": [
    {
      "constant": false,
      "inputs": [],
      "name": "stopContract",
      "outputs": [
        {
          "name": "_success",
          "type": "bool"
        }
      ],
      "payable": false,
      "stateMutability": "nonpayable",
      "type": "function"
    },
    {
      "constant": true,
      "inputs": [
        {
          "name": "_hashGameID",
          "type": "bytes32"
        }
      ],
      "name": "isGameExpired",
      "outputs": [
        {
          "name": "_isExpired",
          "type": "bool"
        }
      ],
      "payable": false,
      "stateMutability": "view",
      "type": "function"
    },
    {
      "constant": false,
      "inputs": [
        {
          "name": "_hashGameID",
          "type": "bytes32"
        },
        {
          "name": "_hand",
          "type": "uint256"
        }
      ],
      "name": "player2Hand",
      "outputs": [
        {
          "name": "_success",
          "type": "bool"
        }
      ],
      "payable": true,
      "stateMutability": "payable",
      "type": "function"
    },
    {
      "constant": true,
      "inputs": [],
      "name": "isStopped",
      "outputs": [
        {
          "name": "_stop",
          "type": "bool"
        }
      ],
      "payable": false,
      "stateMutability": "view",
      "type": "function"
    },
    {
      "constant": false,
      "inputs": [
        {
          "name": "_hashGameID",
          "type": "bytes32"
        }
      ],
      "name": "cancelGame",
      "outputs": [
        {
          "name": "_success",
          "type": "bool"
        }
      ],
      "payable": false,
      "stateMutability": "nonpayable",
      "type": "function"
    },
    {
      "constant": true,
      "inputs": [
        {
          "name": "_hashGameID",
          "type": "bytes32"
        },
        {
          "name": "_hand",
          "type": "uint256"
        },
        {
          "name": "_nonce",
          "type": "uint256"
        }
      ],
      "name": "newSecretHand",
      "outputs": [
        {
          "name": "_secretHand",
          "type": "bytes32"
        }
      ],
      "payable": false,
      "stateMutability": "view",
      "type": "function"
    },
    {
      "constant": false,
      "inputs": [
        {
          "name": "_hashGameID",
          "type": "bytes32"
        },
        {
          "name": "_p1Hand",
          "type": "uint256"
        },
        {
          "name": "_nonce",
          "type": "uint256"
        }
      ],
      "name": "endGame",
      "outputs": [
        {
          "name": "_success",
          "type": "bool"
        }
      ],
      "payable": false,
      "stateMutability": "nonpayable",
      "type": "function"
    },
    {
      "constant": true,
      "inputs": [],
      "name": "getInfoNewOwner",
      "outputs": [
        {
          "name": "_newOwner",
          "type": "address"
        }
      ],
      "payable": false,
      "stateMutability": "view",
      "type": "function"
    },
    {
      "constant": true,
      "inputs": [],
      "name": "getInfoOwner",
      "outputs": [
        {
          "name": "_owner",
          "type": "address"
        }
      ],
      "payable": false,
      "stateMutability": "view",
      "type": "function"
    },
    {
      "constant": true,
      "inputs": [],
      "name": "globalRevealDeadline",
      "outputs": [
        {
          "name": "",
          "type": "uint256"
        }
      ],
      "payable": false,
      "stateMutability": "view",
      "type": "function"
    },
    {
      "constant": false,
      "inputs": [
        {
          "name": "_newOwner",
          "type": "address"
        }
      ],
      "name": "changeOwner",
      "outputs": [
        {
          "name": "_success",
          "type": "bool"
        }
      ],
      "payable": false,
      "stateMutability": "nonpayable",
      "type": "function"
    },
    {
      "constant": true,
      "inputs": [
        {
          "name": "_player2",
          "type": "address"
        }
      ],
      "name": "newGameID",
      "outputs": [
        {
          "name": "_hashGameID",
          "type": "bytes32"
        }
      ],
      "payable": false,
      "stateMutability": "view",
      "type": "function"
    },
    {
      "constant": true,
      "inputs": [],
      "name": "getInfoHand",
      "outputs": [
        {
          "name": "_rock",
          "type": "uint256"
        },
        {
          "name": "_paper",
          "type": "uint256"
        },
        {
          "name": "_scissors",
          "type": "uint256"
        }
      ],
      "payable": false,
      "stateMutability": "pure",
      "type": "function"
    },
    {
      "constant": false,
      "inputs": [],
      "name": "resumeContract",
      "outputs": [
        {
          "name": "_success",
          "type": "bool"
        }
      ],
      "payable": false,
      "stateMutability": "nonpayable",
      "type": "function"
    },
    {
      "constant": false,
      "inputs": [
        {
          "name": "_hashGameID",
          "type": "bytes32"
        },
        {
          "name": "_secretHand",
          "type": "bytes32"
        }
      ],
      "name": "startGame",
      "outputs": [
        {
          "name": "_success",
          "type": "bool"
        }
      ],
      "payable": true,
      "stateMutability": "payable",
      "type": "function"
    },
    {
      "constant": true,
      "inputs": [
        {
          "name": "_hashGameID",
          "type": "bytes32"
        }
      ],
      "name": "getInfoGame",
      "outputs": [
        {
          "name": "_globalPlayDeadline",
          "type": "uint256"
        },
        {
          "name": "_globalRevealDeadline",
          "type": "uint256"
        },
        {
          "name": "_p2PlayDeadline",
          "type": "uint256"
        },
        {
          "name": "_p1RevealDeadline",
          "type": "uint256"
        },
        {
          "name": "_p1Address",
          "type": "address"
        },
        {
          "name": "_p1SecretHand",
          "type": "bytes32"
        },
        {
          "name": "_p1BetAmount",
          "type": "uint256"
        },
        {
          "name": "_p2Address",
          "type": "address"
        },
        {
          "name": "_p2Hand",
          "type": "uint8"
        },
        {
          "name": "_p2BetAmount",
          "type": "uint256"
        }
      ],
      "payable": false,
      "stateMutability": "view",
      "type": "function"
    },
    {
      "constant": false,
      "inputs": [
        {
          "name": "_hashGameID",
          "type": "bytes32"
        }
      ],
      "name": "refundExpiredGame",
      "outputs": [
        {
          "name": "_success",
          "type": "bool"
        }
      ],
      "payable": false,
      "stateMutability": "nonpayable",
      "type": "function"
    },
    {
      "constant": false,
      "inputs": [],
      "name": "confirmChangeOwner",
      "outputs": [
        {
          "name": "_success",
          "type": "bool"
        }
      ],
      "payable": false,
      "stateMutability": "nonpayable",
      "type": "function"
    },
    {
      "constant": true,
      "inputs": [],
      "name": "globalPlayDeadline",
      "outputs": [
        {
          "name": "",
          "type": "uint256"
        }
      ],
      "payable": false,
      "stateMutability": "view",
      "type": "function"
    },
    {
      "inputs": [
        {
          "name": "_playDeadline",
          "type": "uint256"
        },
        {
          "name": "_revealDeadline",
          "type": "uint256"
        }
      ],
      "payable": false,
      "stateMutability": "nonpayable",
      "type": "constructor"
    },
    {
      "anonymous": false,
      "inputs": [
        {
          "indexed": false,
          "name": "_sender",
          "type": "address"
        }
      ],
      "name": "LogRockPaperScissorsNew",
      "type": "event"
    },
    {
      "anonymous": false,
      "inputs": [
        {
          "indexed": false,
          "name": "_sender",
          "type": "address"
        },
        {
          "indexed": false,
          "name": "_hashGameID",
          "type": "bytes32"
        },
        {
          "indexed": false,
          "name": "_secretHand",
          "type": "bytes32"
        }
      ],
      "name": "LogRockPaperScissorsStartGame",
      "type": "event"
    },
    {
      "anonymous": false,
      "inputs": [
        {
          "indexed": false,
          "name": "_sender",
          "type": "address"
        },
        {
          "indexed": false,
          "name": "_hashGameID",
          "type": "bytes32"
        },
        {
          "indexed": false,
          "name": "_hand",
          "type": "uint256"
        }
      ],
      "name": "LogRockPaperScissorsPlayer2Hand",
      "type": "event"
    },
    {
      "anonymous": false,
      "inputs": [
        {
          "indexed": false,
          "name": "_sender",
          "type": "address"
        },
        {
          "indexed": false,
          "name": "_hashGameID",
          "type": "bytes32"
        },
        {
          "indexed": false,
          "name": "_p1Hand",
          "type": "uint256"
        },
        {
          "indexed": false,
          "name": "_nonce",
          "type": "uint256"
        }
      ],
      "name": "LogRockPaperScissorsEndGame",
      "type": "event"
    },
    {
      "anonymous": false,
      "inputs": [
        {
          "indexed": false,
          "name": "_sender",
          "type": "address"
        },
        {
          "indexed": false,
          "name": "_hashGameID",
          "type": "bytes32"
        },
        {
          "indexed": false,
          "name": "_winner",
          "type": "address"
        }
      ],
      "name": "LogRockPaperScissorsPayWinner",
      "type": "event"
    },
    {
      "anonymous": false,
      "inputs": [
        {
          "indexed": false,
          "name": "_sender",
          "type": "address"
        },
        {
          "indexed": false,
          "name": "_hashGameID",
          "type": "bytes32"
        }
      ],
      "name": "LogRockPaperScissorsRefundGame",
      "type": "event"
    },
    {
      "anonymous": false,
      "inputs": [
        {
          "indexed": false,
          "name": "_sender",
          "type": "address"
        },
        {
          "indexed": false,
          "name": "_hashGameID",
          "type": "bytes32"
        }
      ],
      "name": "LogRockPaperScissorsRefunExpiredGame",
      "type": "event"
    },
    {
      "anonymous": false,
      "inputs": [
        {
          "indexed": false,
          "name": "_sender",
          "type": "address"
        },
        {
          "indexed": false,
          "name": "_hashGameID",
          "type": "bytes32"
        }
      ],
      "name": "LogRockPaperScissorsCancelGame",
      "type": "event"
    },
    {
      "anonymous": false,
      "inputs": [
        {
          "indexed": false,
          "name": "_sender",
          "type": "address"
        }
      ],
      "name": "LogStoppableNew",
      "type": "event"
    },
    {
      "anonymous": false,
      "inputs": [
        {
          "indexed": false,
          "name": "_sender",
          "type": "address"
        }
      ],
      "name": "LogStoppableStopContract",
      "type": "event"
    },
    {
      "anonymous": false,
      "inputs": [
        {
          "indexed": false,
          "name": "_sender",
          "type": "address"
        }
      ],
      "name": "LogStoppableResumeContract",
      "type": "event"
    },
    {
      "anonymous": false,
      "inputs": [
        {
          "indexed": false,
          "name": "_sender",
          "type": "address"
        }
      ],
      "name": "LogOwnedNew",
      "type": "event"
    },
    {
      "anonymous": false,
      "inputs": [
        {
          "indexed": false,
          "name": "_sender",
          "type": "address"
        },
        {
          "indexed": false,
          "name": "_newOwner",
          "type": "address"
        }
      ],
      "name": "LogOwnedChangeOwner",
      "type": "event"
    },
    {
      "anonymous": false,
      "inputs": [
        {
          "indexed": false,
          "name": "_sender",
          "type": "address"
        },
        {
          "indexed": false,
          "name": "_newOwner",
          "type": "address"
        }
      ],
      "name": "LogOwnedConfirmChangeOwner",
      "type": "event"
    }
  ],
  "bytecode": "0x6060604052341561000f57600080fd5b60405160408061213783398101604052808051906020019091908051906020019091905050336000806101000a81548173ffffffffffffffffffffffffffffffffffffffff021916908373ffffffffffffffffffffffffffffffffffffffff1602179055507f3452aa652f56729b39a9198f36cd36bee3117c0112792f8707bab75d357e66e533604051808273ffffffffffffffffffffffffffffffffffffffff1673ffffffffffffffffffffffffffffffffffffffff16815260200191505060405180910390a17f8cc00c1f028a34a0114cd2b3c9d9cb40bfaaf3412c080091c5ca0db70b09554f33604051808273ffffffffffffffffffffffffffffffffffffffff1673ffffffffffffffffffffffffffffffffffffffff16815260200191505060405180910390a1600082141561015157611680600281905550610159565b816002819055505b600081141561017057611680600381905550610178565b806003819055505b7f6d3bd14492c8a111be4c70b76561b370b534430e897e1b6db0ca8557898a951b33604051808273ffffffffffffffffffffffffffffffffffffffff1673ffffffffffffffffffffffffffffffffffffffff16815260200191505060405180910390a15050611f4b806101ec6000396000f300606060405260043610610107576000357c0100000000000000000000000000000000000000000000000000000000900463ffffffff16806312253a6c1461010c5780631609348c146101395780631ef39248146101785780633f683b6a146101b55780633f7121b0146101e257806344539d68146102215780634ad84edf14610276578063585230de146102c757806369d47ad61461031c57806389cd951614610371578063a6f9dae11461039a578063b6b970fd146103eb578063c1b2692214610440578063c4bc5da514610477578063ca606cb8146104a4578063cd5ded86146104e5578063ce591bb6146105cd578063eae043881461060c578063ece03d6f14610639575b600080fd5b341561011757600080fd5b61011f610662565b604051808215151515815260200191505060405180910390f35b341561014457600080fd5b61015e600480803560001916906020019091905050610743565b604051808215151515815260200191505060405180910390f35b61019b6004808035600019169060200190919080359060200190919050506107bc565b604051808215151515815260200191505060405180910390f35b34156101c057600080fd5b6101c86109f1565b604051808215151515815260200191505060405180910390f35b34156101ed57600080fd5b610207600480803560001916906020019091905050610a08565b604051808215151515815260200191505060405180910390f35b341561022c57600080fd5b610258600480803560001916906020019091908035906020019091908035906020019091905050610b02565b60405180826000191660001916815260200191505060405180910390f35b341561028157600080fd5b6102ad600480803560001916906020019091908035906020019091908035906020019091905050610b9a565b604051808215151515815260200191505060405180910390f35b34156102d257600080fd5b6102da610f59565b604051808273ffffffffffffffffffffffffffffffffffffffff1673ffffffffffffffffffffffffffffffffffffffff16815260200191505060405180910390f35b341561032757600080fd5b61032f610f83565b604051808273ffffffffffffffffffffffffffffffffffffffff1673ffffffffffffffffffffffffffffffffffffffff16815260200191505060405180910390f35b341561037c57600080fd5b610384610fac565b6040518082815260200191505060405180910390f35b34156103a557600080fd5b6103d1600480803573ffffffffffffffffffffffffffffffffffffffff16906020019091905050610fb2565b604051808215151515815260200191505060405180910390f35b34156103f657600080fd5b610422600480803573ffffffffffffffffffffffffffffffffffffffff16906020019091905050611116565b60405180826000191660001916815260200191505060405180910390f35b341561044b57600080fd5b6104536111cf565b60405180848152602001838152602001828152602001935050505060405180910390f35b341561048257600080fd5b61048a6111ee565b604051808215151515815260200191505060405180910390f35b6104cb600480803560001916906020019091908035600019169060200190919050506112d0565b604051808215151515815260200191505060405180910390f35b34156104f057600080fd5b61050a600480803560001916906020019091905050611489565b604051808b81526020018a81526020018981526020018881526020018773ffffffffffffffffffffffffffffffffffffffff1673ffffffffffffffffffffffffffffffffffffffff16815260200186600019166000191681526020018581526020018473ffffffffffffffffffffffffffffffffffffffff1673ffffffffffffffffffffffffffffffffffffffff1681526020018360038111156105aa57fe5b60ff1681526020018281526020019a505050505050505050505060405180910390f35b34156105d857600080fd5b6105f2600480803560001916906020019091905050611554565b604051808215151515815260200191505060405180910390f35b341561061757600080fd5b61061f611663565b604051808215151515815260200191505060405180910390f35b341561064457600080fd5b61064c611808565b6040518082815260200191505060405180910390f35b60008060009054906101000a900473ffffffffffffffffffffffffffffffffffffffff1673ffffffffffffffffffffffffffffffffffffffff163373ffffffffffffffffffffffffffffffffffffffff161415156106bf57600080fd5b60018060146101000a81548160ff0219169083151502179055507fdc5107df853e31da94e9c53d37f4d2b899e5fb7b6308111493accae88b2659aa33604051808273ffffffffffffffffffffffffffffffffffffffff1673ffffffffffffffffffffffffffffffffffffffff16815260200191505060405180910390a16001905090565b60008060010282600019161415151561075b57600080fd5b600460008360001916600019168152602001908152602001600020600001544211806107a457506004600083600019166000191681526020019081526020016000206001015442115b156107b257600190506107b7565b600090505b919050565b600080600160149054906101000a900460ff161515156107db57600080fd5b60006001028460001916141515156107f257600080fd5b6000831415151561080257600080fd5b60046000856000191660001916815260200190815260200160002090503373ffffffffffffffffffffffffffffffffffffffff168160020160009054906101000a900473ffffffffffffffffffffffffffffffffffffffff1673ffffffffffffffffffffffffffffffffffffffff161415151561087e57600080fd5b60006001028160030154600019161415151561089957600080fd5b600060038111156108a657fe5b8160050160149054906101000a900460ff1660038111156108c357fe5b1415156108cf57600080fd5b80600001544211156108ee576108e48461180e565b50600091506109ea565b338160050160006101000a81548173ffffffffffffffffffffffffffffffffffffffff021916908373ffffffffffffffffffffffffffffffffffffffff16021790555082600381111561093d57fe5b8160050160146101000a81548160ff0219169083600381111561095c57fe5b02179055503481600601819055507fad4fc6ad8dec69b774568e118b35763aab4f1f03f1d94bc5818b3fa7c6c51083338585604051808473ffffffffffffffffffffffffffffffffffffffff1673ffffffffffffffffffffffffffffffffffffffff1681526020018360001916600019168152602001828152602001935050505060405180910390a1600191505b5092915050565b6000600160149054906101000a900460ff16905090565b60008060009054906101000a900473ffffffffffffffffffffffffffffffffffffffff1673ffffffffffffffffffffffffffffffffffffffff163373ffffffffffffffffffffffffffffffffffffffff16141515610a6557600080fd5b6000600102826000191614151515610a7c57600080fd5b610a858261180e565b507f2db48f232ca2d3d56355d8a2d3ae0b9b0eb166a60b338ae83f713018eb08b23d3383604051808373ffffffffffffffffffffffffffffffffffffffff1673ffffffffffffffffffffffffffffffffffffffff16815260200182600019166000191681526020019250505060405180910390a160019050919050565b6000600160149054906101000a900460ff16151515610b2057600080fd5b33848484604051808573ffffffffffffffffffffffffffffffffffffffff1673ffffffffffffffffffffffffffffffffffffffff166c010000000000000000000000000281526014018460001916600019168152602001838152602001828152602001945050505050604051809103902090509392505050565b600080600080600160149054906101000a900460ff16151515610bbc57600080fd5b6000600102876000191614151515610bd357600080fd5b60008614151515610be357600080fd5b600060046000896000191660001916815260200190815260200160002060020160009054906101000a900473ffffffffffffffffffffffffffffffffffffffff1673ffffffffffffffffffffffffffffffffffffffff1614151515610c4757600080fd5b6004600088600019166000191681526020019081526020016000209250610c6f878787610b02565b60001916836003015460001916141515610c8857600080fd5b8260010154421115610ca757610c9d8761180e565b5060009350610f4f565b856003811115610cb357fe5b91508260050160149054906101000a900460ff16905060016003811115610cd657fe5b826003811115610ce257fe5b148015610d05575060026003811115610cf757fe5b816003811115610d0357fe5b145b80610d47575060026003811115610d1857fe5b826003811115610d2457fe5b148015610d465750600380811115610d3857fe5b816003811115610d4457fe5b145b5b80610d895750600380811115610d5957fe5b826003811115610d6557fe5b148015610d88575060016003811115610d7a57fe5b816003811115610d8657fe5b145b5b15610dc257610dbc878460020160009054906101000a900473ffffffffffffffffffffffffffffffffffffffff16611a97565b50610ec7565b60016003811115610dcf57fe5b816003811115610ddb57fe5b148015610dfe575060026003811115610df057fe5b826003811115610dfc57fe5b145b80610e40575060026003811115610e1157fe5b816003811115610e1d57fe5b148015610e3f5750600380811115610e3157fe5b826003811115610e3d57fe5b145b5b80610e825750600380811115610e5257fe5b816003811115610e5e57fe5b148015610e81575060016003811115610e7357fe5b826003811115610e7f57fe5b145b5b15610ebb57610eb5878460050160009054906101000a900473ffffffffffffffffffffffffffffffffffffffff16611a97565b50610ec6565b610ec48761180e565b505b5b7f9a0fff3c8f06cca88f156eb6e08da1582c0d1a20ae8f09e6f4230e47b520669533888888604051808573ffffffffffffffffffffffffffffffffffffffff1673ffffffffffffffffffffffffffffffffffffffff168152602001846000191660001916815260200183815260200182815260200194505050505060405180910390a1600193505b5050509392505050565b6000600160009054906101000a900473ffffffffffffffffffffffffffffffffffffffff16905090565b60008060009054906101000a900473ffffffffffffffffffffffffffffffffffffffff16905090565b60035481565b60008060009054906101000a900473ffffffffffffffffffffffffffffffffffffffff1673ffffffffffffffffffffffffffffffffffffffff163373ffffffffffffffffffffffffffffffffffffffff1614151561100f57600080fd5b60008273ffffffffffffffffffffffffffffffffffffffff161415151561103557600080fd5b81600160006101000a81548173ffffffffffffffffffffffffffffffffffffffff021916908373ffffffffffffffffffffffffffffffffffffffff1602179055507fae3fd6fbd4e7d8a4e53ecf89c51f72c00191a8d8d2c2fba3a5f4d9224996a6ae3383604051808373ffffffffffffffffffffffffffffffffffffffff1673ffffffffffffffffffffffffffffffffffffffff1681526020018273ffffffffffffffffffffffffffffffffffffffff1673ffffffffffffffffffffffffffffffffffffffff1681526020019250505060405180910390a160019050919050565b6000600160149054906101000a900460ff1615151561113457600080fd5b3382604051808373ffffffffffffffffffffffffffffffffffffffff1673ffffffffffffffffffffffffffffffffffffffff166c010000000000000000000000000281526014018273ffffffffffffffffffffffffffffffffffffffff1673ffffffffffffffffffffffffffffffffffffffff166c010000000000000000000000000281526014019250505060405180910390209050919050565b6000806000600160036002829250819150809050925092509250909192565b60008060009054906101000a900473ffffffffffffffffffffffffffffffffffffffff1673ffffffffffffffffffffffffffffffffffffffff163373ffffffffffffffffffffffffffffffffffffffff1614151561124b57600080fd5b6000600160146101000a81548160ff0219169083151502179055507fbe8d7a0d2974b6d29c6b0e1f7199c77822dd586b666191ba97458c086c3d2d6433604051808273ffffffffffffffffffffffffffffffffffffffff1673ffffffffffffffffffffffffffffffffffffffff16815260200191505060405180910390a16001905090565b600080600160149054906101000a900460ff161515156112ef57600080fd5b600060010284600019161415151561130657600080fd5b600060010283600019161415151561131d57600080fd5b6000600102600460008660001916600019168152602001908152602001600020600301546000191614151561135157600080fd5b426002540160046000866000191660001916815260200190815260200160002060000181905550600460008560001916600019168152602001908152602001600020905042600354018160010181905550338160020160006101000a81548173ffffffffffffffffffffffffffffffffffffffff021916908373ffffffffffffffffffffffffffffffffffffffff160217905550828160030181600019169055503481600401819055507f914c668dc414d4e0a04d5b4d2cda72b3cfa4c326aa6a3d9dc08a99f55383ac88338585604051808473ffffffffffffffffffffffffffffffffffffffff1673ffffffffffffffffffffffffffffffffffffffff16815260200183600019166000191681526020018260001916600019168152602001935050505060405180910390a1600191505092915050565b6000806000806000806000806000806000600460008d600019166000191681526020019081526020016000209050600254600354826000015483600101548460020160009054906101000a900473ffffffffffffffffffffffffffffffffffffffff16856003015486600401548760050160009054906101000a900473ffffffffffffffffffffffffffffffffffffffff168860050160149054906101000a900460ff1689600601549a509a509a509a509a509a509a509a509a509a50509193959799509193959799565b6000600160149054906101000a900460ff1615151561157257600080fd5b600060010282600019161415151561158957600080fd5b600460008360001916600019168152602001908152602001600020600001544211806115d257506004600083600019166000191681526020019081526020016000206001015442115b15156115dd57600080fd5b6115e68261180e565b507f2edde4a409b50c0f9851ea8124475169cbf7d092f6f28fbc03d13c2fd2fe08d23383604051808373ffffffffffffffffffffffffffffffffffffffff1673ffffffffffffffffffffffffffffffffffffffff16815260200182600019166000191681526020019250505060405180910390a160019050919050565b6000600160009054906101000a900473ffffffffffffffffffffffffffffffffffffffff1673ffffffffffffffffffffffffffffffffffffffff163373ffffffffffffffffffffffffffffffffffffffff161415156116c157600080fd5b600160009054906101000a900473ffffffffffffffffffffffffffffffffffffffff166000806101000a81548173ffffffffffffffffffffffffffffffffffffffff021916908373ffffffffffffffffffffffffffffffffffffffff160217905550600160006101000a81549073ffffffffffffffffffffffffffffffffffffffff02191690557f0d58bef243249903c29496d81a7ffbe3f394735e5ccd3e1dabbfec82c635c8d933600160009054906101000a900473ffffffffffffffffffffffffffffffffffffffff16604051808373ffffffffffffffffffffffffffffffffffffffff1673ffffffffffffffffffffffffffffffffffffffff1681526020018273ffffffffffffffffffffffffffffffffffffffff1673ffffffffffffffffffffffffffffffffffffffff1681526020019250505060405180910390a16001905090565b60025481565b600080600080600080600160149054906101000a900460ff1615151561183357600080fd5b600460008860001916600019168152602001908152602001600020945084600401549350846006015492508460020160009054906101000a900473ffffffffffffffffffffffffffffffffffffffff1691508460050160009054906101000a900473ffffffffffffffffffffffffffffffffffffffff16905060046000886000191660001916815260200190815260200160002060008082016000905560018201600090556002820160006101000a81549073ffffffffffffffffffffffffffffffffffffffff0219169055600382016000905560048201600090556005820160006101000a81549073ffffffffffffffffffffffffffffffffffffffff02191690556005820160146101000a81549060ff02191690556006820160009055505060008273ffffffffffffffffffffffffffffffffffffffff161415156119b5578173ffffffffffffffffffffffffffffffffffffffff166108fc859081150290604051600060405180830381858888f1935050505015156119b457600080fd5b5b60008173ffffffffffffffffffffffffffffffffffffffff16141515611a16578073ffffffffffffffffffffffffffffffffffffffff166108fc849081150290604051600060405180830381858888f193505050501515611a1557600080fd5b5b7fdcc2d80b50199f0d0bb99363be03bafa5ee29a8fa64d3713a4dc08179f7fa4183388604051808373ffffffffffffffffffffffffffffffffffffffff1673ffffffffffffffffffffffffffffffffffffffff16815260200182600019166000191681526020019250505060405180910390a1600195505050505050919050565b600080600080600080600160149054906101000a900460ff16151515611abc57600080fd5b6000600102886000191614151515611ad357600080fd5b60008773ffffffffffffffffffffffffffffffffffffffff1614151515611af957600080fd5b600460008960001916600019168152602001908152602001600020945084600401549350846006015492508460020160009054906101000a900473ffffffffffffffffffffffffffffffffffffffff1691508460050160009054906101000a900473ffffffffffffffffffffffffffffffffffffffff16905060046000896000191660001916815260200190815260200160002060008082016000905560018201600090556002820160006101000a81549073ffffffffffffffffffffffffffffffffffffffff0219169055600382016000905560048201600090556005820160006101000a81549073ffffffffffffffffffffffffffffffffffffffff02191690556005820160146101000a81549060ff0219169055600682016000905550508173ffffffffffffffffffffffffffffffffffffffff168773ffffffffffffffffffffffffffffffffffffffff161415611d435782841180611c63575084600601548560040154145b15611caf578173ffffffffffffffffffffffffffffffffffffffff166108fc8486019081150290604051600060405180830381858888f193505050501515611caa57600080fd5b611d3e565b82841015611d3d578173ffffffffffffffffffffffffffffffffffffffff166108fc600286029081150290604051600060405180830381858888f193505050501515611cfa57600080fd5b8073ffffffffffffffffffffffffffffffffffffffff166108fc8585039081150290604051600060405180830381858888f193505050501515611d3c57600080fd5b5b5b611e69565b8073ffffffffffffffffffffffffffffffffffffffff168773ffffffffffffffffffffffffffffffffffffffff161415611e685783831180611d8c575084600601548560040154145b15611dd8578073ffffffffffffffffffffffffffffffffffffffff166108fc8486019081150290604051600060405180830381858888f193505050501515611dd357600080fd5b611e67565b83831015611e66578073ffffffffffffffffffffffffffffffffffffffff166108fc600285029081150290604051600060405180830381858888f193505050501515611e2357600080fd5b8173ffffffffffffffffffffffffffffffffffffffff166108fc8486039081150290604051600060405180830381858888f193505050501515611e6557600080fd5b5b5b5b5b7f4fe420952e40df967fa89ba2302b8f7ffbbaf9b0131b51ca359fceb4c2342291338989604051808473ffffffffffffffffffffffffffffffffffffffff1673ffffffffffffffffffffffffffffffffffffffff16815260200183600019166000191681526020018273ffffffffffffffffffffffffffffffffffffffff1673ffffffffffffffffffffffffffffffffffffffff168152602001935050505060405180910390a1600195505050505050929150505600a165627a7a72305820e47134a57c5b5f1e24ac7175e8626fd1e87aeee4e452734d8f0b0a088f8d07920029",
  "source": "pragma solidity ^0.4.4;\n\n/*\nRock Paper Scissors\nYou will create a smart contract named RockPaperScissors whereby:\n\nAlice and Bob can play the classic rock paper scissors game.\n- to enrol, each player needs to deposit the right Ether amount.\n- to play, each player submits their unique move.\n- the contract decides and rewards the winner with all Ether.\n\nStretch goals:\n- make it a utility whereby any 2 people can decide to play against each other.\n- reduce gas costs as much as you can.\n\nRules:\n    Rock > Scissors > Paper > Rock\n    1       2           3       1\n */\n\n /*\n\nWorkflow:\n- Player1 requests a newGame with Player2. Obtains hashGameID\n- Player1 and Player2 off-chain obtain their hashSecretHand bets\n- Player1 plays their SecretHand. Sets expiration times to play and reveal\n- Player2 plays in the clear (before expiration time)\n- Player1 ends the game by revealing their SecretHand (before reveal expiration time)\n    - Contract rewards the winner and refunds any leftover bet amount to the players\n- At any time any player can request to refund an expired game. The contract will evaluate if the game is expired and refund accordingly\n\nCORE functions:\n- newGameID\n- newSecretHand\n- startGame\n- player2Hand\n- endGame\n- payWinner\n- refundGame\n- refundExpiredGame\n\nADMIN functions\n- cancelGame\n\nSUPPORT functions\n- getInfoGame\n- getInfoHand\n- isGameExpired\n\n */\n\nimport \"./_Stoppable.sol\"; //inherit the Base contract\n\ncontract RockPaperScissors is Stoppable {\n\n    enum Hand {NONE, Rock, Scissors, Paper}\n\n    uint constant PLAYDEADLINE = 86400/15; //24 hours\n    uint constant REVEALDEADLINE = 86400/15; //24 hours\n    uint public globalPlayDeadline;\n    uint public globalRevealDeadline;\n\n    struct Game {\n        uint p2PlayDeadline;\n        uint p1RevealDeadline;\n        \n        address p1Address;\n        bytes32 p1SecretHand;\n        uint p1BetAmount;\n\n        address p2Address;\n        Hand p2Hand;\n        uint p2BetAmount;\n    }\n    mapping (bytes32 => Game) games; //hashGameID => Game\n\n// CORE functions\n\n        event LogRockPaperScissorsNew (address _sender); \n    function RockPaperScissors (uint _playDeadline, uint _revealDeadline)\n        public\n    {\n        if (_playDeadline == 0)\n            globalPlayDeadline = PLAYDEADLINE;\n        else\n            globalPlayDeadline = _playDeadline;\n        \n        if (_revealDeadline == 0)\n            globalRevealDeadline = REVEALDEADLINE;\n        else\n            globalRevealDeadline = _revealDeadline;\n\n        LogRockPaperScissorsNew(msg.sender);\n    }\n\n        // Having player2 address prevents player 1 and player2 to play more than one game among them simultaneously\n    function newGameID (address _player2)\n        onlyIfRunning\n        constant\n        public\n        returns (bytes32 _hashGameID)\n    {\n        return keccak256(msg.sender, _player2);\n    }\n\n    function newSecretHand (bytes32 _hashGameID, uint _hand, uint _nonce)\n        onlyIfRunning\n        constant\n        public\n        returns (bytes32 _secretHand)\n    {\n        return keccak256(msg.sender, _hashGameID, _hand, _nonce);\n    }\n\n        event LogRockPaperScissorsStartGame (address _sender, bytes32 _hashGameID, bytes32 _secretHand);\n        // Player 1 starts a new game with Player 2 by sending first their secret hand and the bet amount\n    function startGame (bytes32 _hashGameID, bytes32 _secretHand)\n        onlyIfRunning\n        payable\n        public\n        returns (bool _success)\n    {\n        require (_hashGameID != 0);\n        require (_secretHand != 0);\n        require (games[_hashGameID].p1SecretHand == 0); //require new game\n\n        games[_hashGameID].p2PlayDeadline = globalPlayDeadline + now;\n\n        Game storage game = games[_hashGameID]; //get a pointer to the game in storage\n        \n        game.p1RevealDeadline = globalRevealDeadline + now;\n\n        game.p1Address = msg.sender;\n        game.p1SecretHand = _secretHand;\n        game.p1BetAmount = msg.value;\n\n        LogRockPaperScissorsStartGame (msg.sender, _hashGameID, _secretHand);\n        return true;\n    }\n\n        event LogRockPaperScissorsPlayer2Hand (address _sender, bytes32 _hashGameID, uint _hand);\n        // Only player 2 can execute this function AFTER player 1 started the gmae with their secret hand\n        // Player 2 plays their hand in the clear as player 1 shall have already played\n    function player2Hand (bytes32 _hashGameID, uint _hand)\n        onlyIfRunning\n        payable\n        public\n        returns (bool _success)\n    {\n        require (_hashGameID != 0);\n        require (_hand != 0);\n\n        Game storage game = games[_hashGameID]; //get a pointer to the game in storage\n        require (game.p1Address != msg.sender); //player 1 cannot execute this function\n        require (game.p1SecretHand != 0); //require existing game\n        require (game.p2Hand == Hand.NONE); //prevent player2 to play more than once\n\n        if (now > game.p2PlayDeadline) //game expired\n        {\n            refundGame (_hashGameID);\n            return false;\n        }\n\n        game.p2Address = msg.sender;\n        game.p2Hand = Hand(_hand);\n        game.p2BetAmount = msg.value;\n\n        LogRockPaperScissorsPlayer2Hand (msg.sender, _hashGameID, _hand);\n        return true;\n    }\n\n        event LogRockPaperScissorsEndGame (address _sender, bytes32 _hashGameID, uint _p1Hand, uint _nonce);\n        // Any player can call this function if all the parameters are known\n        // Finishes the game by revealing player 1 secret hand\n        // Pays the winner\n    function endGame (bytes32 _hashGameID, uint _p1Hand, uint _nonce)\n        onlyIfRunning\n        public\n        returns (bool _success)\n    {\n        require (_hashGameID != 0);\n        require (_p1Hand != 0);\n        require (games[_hashGameID].p1Address != 0); //prevent re-entry\n\n        Game storage game = games[_hashGameID];\n        require (game.p1SecretHand == newSecretHand(_hashGameID, _p1Hand, _nonce)); //require that the revealed hand is the same as the secret hand\n\n        if (now > game.p1RevealDeadline) //game expired\n        {\n            refundGame (_hashGameID);\n            return false;\n        }\n        \n        Hand p1Hand = Hand(_p1Hand);\n        Hand p2Hand = game.p2Hand;\n\n        if ((p1Hand == Hand.Rock && p2Hand == Hand.Scissors) || (p1Hand == Hand.Scissors && p2Hand == Hand.Paper) || (p1Hand == Hand.Paper && p2Hand == Hand.Rock)) \n        {\n            payWinner (_hashGameID, game.p1Address);\n        } \n        else if ((p2Hand == Hand.Rock && p1Hand == Hand.Scissors) || (p2Hand == Hand.Scissors && p1Hand == Hand.Paper) || (p2Hand == Hand.Paper && p1Hand == Hand.Rock)) \n        {\n            payWinner (_hashGameID, game.p2Address);\n        }\n        else\n        {\n            refundGame (_hashGameID); //both players played the same hand. Refund them\n        }\n\n        LogRockPaperScissorsEndGame (msg.sender, _hashGameID, _p1Hand, _nonce);\n        return true;\n    }\n\n        event LogRockPaperScissorsPayWinner (address _sender, bytes32 _hashGameID, address _winner);\n        // PRIVATE\n        // Pays the winner the smallest bet and refunds the player with the biggest bet any unused amount\n    function payWinner (bytes32 _hashGameID, address _winner)\n        onlyIfRunning\n        private\n        returns (bool _success)\n    {\n        require (_hashGameID != 0);\n        require (_winner != 0);\n\n        Game storage game = games[_hashGameID];\n\n        uint p1BetAmount = game.p1BetAmount;\n        uint p2BetAmount = game.p2BetAmount;\n\n        address player1 = game.p1Address;\n        address player2 = game.p2Address;\n\n        delete games[_hashGameID]; //optimistic accounting\n\n        if (_winner == player1) //if the winner is player 1\n        {\n            if ((p1BetAmount > p2BetAmount) || (game.p1BetAmount == game.p2BetAmount)) //and player 1 bet is higher than player 2 or equal\n            {\n                player1.transfer (p1BetAmount + p2BetAmount);\n            }\n            else if (p1BetAmount < p2BetAmount) //and player 2 bet is higher than player 1\n            {\n                player1.transfer (p1BetAmount*2);\n                player2.transfer (p2BetAmount - p1BetAmount); //refund player2 the leftover bet amount\n            }\n        }\n        else if  (_winner == player2) //the winner is player 2\n        {\n            if ((p2BetAmount > p1BetAmount) || (game.p1BetAmount == game.p2BetAmount)) //and player 1 bet is higher than player 2 or equal\n            {\n                player2.transfer (p1BetAmount + p2BetAmount);\n            }\n            else if (p2BetAmount < p1BetAmount) //and player 1 bet is higher than player 2\n            {\n                player2.transfer (p2BetAmount*2);\n                player1.transfer (p1BetAmount - p2BetAmount); //refund player1 the leftover bet amount\n            }\n        }\n\n        LogRockPaperScissorsPayWinner (msg.sender, _hashGameID, _winner);\n        return true;\n    }\n\n        event LogRockPaperScissorsRefundGame (address _sender, bytes32 _hashGameID);\n        // PRIVATE\n        // Refunds each player thier bets\n        // To be executed in case of a tie or expired game\n    function refundGame (bytes32 _hashGameID)\n        onlyIfRunning\n        private\n        returns (bool _success)\n    {\n        Game storage game = games[_hashGameID];\n\n        uint p1BetAmount = game.p1BetAmount;\n        uint p2BetAmount = game.p2BetAmount;\n\n        address player1 = game.p1Address;\n        address player2 = game.p2Address;\n\n        delete games[_hashGameID]; //optimistic accounting\n\n        if (player1 != 0) player1.transfer (p1BetAmount);\n        if (player2 != 0) player2.transfer (p2BetAmount);\n\n        LogRockPaperScissorsRefundGame (msg.sender, _hashGameID);\n        return true;\n    }\n\n        event LogRockPaperScissorsRefunExpiredGame (address _sender, bytes32 _hashGameID);\n        // Any player can call this function and if the game is expired\n        // the contract will refund the bets to each player\n    function refundExpiredGame (bytes32 _hashGameID)\n        onlyIfRunning\n        public\n        returns (bool _success)\n    {\n        require (_hashGameID != 0);\n        require (now > games[_hashGameID].p2PlayDeadline || now > games[_hashGameID].p1RevealDeadline); //the game shall be expired in either condition\n\n        refundGame (_hashGameID); //this function refunds each player with their bet amount\n\n        LogRockPaperScissorsRefunExpiredGame (msg.sender, _hashGameID);\n        return true;\n    }\n\n// ADMIN functions\n\n        event LogRockPaperScissorsCancelGame (address _sender, bytes32 _hashGameID);\n        // Owner can cancel the game at any time\n    function cancelGame (bytes32 _hashGameID)\n        onlyOwner\n        public \n        returns (bool _success)\n    {\n        require (_hashGameID != 0);\n\n        refundGame (_hashGameID);\n\n        LogRockPaperScissorsCancelGame (msg.sender, _hashGameID);\n        return true;\n    }\n\n// SUPPORT functions\n\n    function getInfoGame (bytes32 _hashGameID)\n        view\n        public\n        returns(uint _globalPlayDeadline, \n                uint _globalRevealDeadline, \n                uint _p2PlayDeadline,\n                uint _p1RevealDeadline, \n                address _p1Address, \n                bytes32 _p1SecretHand, \n                uint _p1BetAmount, \n                address _p2Address, \n                Hand _p2Hand, \n                uint _p2BetAmount)\n    {\n        Game storage game = games[_hashGameID];\n        \n        return (\n            globalPlayDeadline,\n            globalRevealDeadline,\n            game.p2PlayDeadline,\n            game.p1RevealDeadline,\n            game.p1Address,\n            game.p1SecretHand,\n            game.p1BetAmount,\n            game.p2Address,\n            game.p2Hand,\n            game.p2BetAmount\n        );\n    }\n\n    function getInfoHand ()\n        pure\n        public\n        returns (uint _rock, uint _paper, uint _scissors)\n    {\n        return (1, 3, 2);\n    }\n\n    function isGameExpired (bytes32 _hashGameID)\n        constant\n        public\n        returns (bool _isExpired)\n    {\n        require (_hashGameID != 0);\n\n        if (now > games[_hashGameID].p2PlayDeadline || now > games[_hashGameID].p1RevealDeadline)\n            return true;\n        else\n            return false;\n    }\n}",
  "sourcePath": "/home/jordi/b9/Unit4/SP_RPS/contracts/RockPaperScissors.sol",
  "compiler": {
    "name": "solc",
    "version": "0.4.18+commit.9cf6e910.Emscripten.clang"
  },
  "schemaVersion": "1.0.1",
  "updatedAt": "2018-02-06T10:55:11.172Z"
}